{
  "address": "0x3671Fdfd920DD33E9F0b15BBEd18ca9bBe9ce003",
  "abi": [
    {
      "inputs": [
        {
          "internalType": "address",
          "name": "_tokenA",
          "type": "address"
        },
        {
          "internalType": "address",
          "name": "_tokenB",
          "type": "address"
        }
      ],
      "stateMutability": "nonpayable",
      "type": "constructor"
    },
    {
      "anonymous": false,
      "inputs": [
        {
          "indexed": true,
          "internalType": "address",
          "name": "user",
          "type": "address"
        },
        {
          "indexed": false,
          "internalType": "uint256",
          "name": "amountA",
          "type": "uint256"
        },
        {
          "indexed": false,
          "internalType": "uint256",
          "name": "amountB",
          "type": "uint256"
        }
      ],
      "name": "LiquidityAdded",
      "type": "event"
    },
    {
      "anonymous": false,
      "inputs": [
        {
          "indexed": true,
          "internalType": "address",
          "name": "user",
          "type": "address"
        },
        {
          "indexed": false,
          "internalType": "uint256",
          "name": "amountA",
          "type": "uint256"
        },
        {
          "indexed": false,
          "internalType": "uint256",
          "name": "amountB",
          "type": "uint256"
        }
      ],
      "name": "LiquidityRemoved",
      "type": "event"
    },
    {
      "anonymous": false,
      "inputs": [
        {
          "indexed": true,
          "internalType": "address",
          "name": "user",
          "type": "address"
        },
        {
          "indexed": false,
          "internalType": "uint256",
          "name": "amountIn",
          "type": "uint256"
        },
        {
          "indexed": false,
          "internalType": "uint256",
          "name": "amountOut",
          "type": "uint256"
        }
      ],
      "name": "TokenSwapped",
      "type": "event"
    },
    {
      "inputs": [
        {
          "internalType": "uint256",
          "name": "amountA",
          "type": "uint256"
        },
        {
          "internalType": "uint256",
          "name": "amountB",
          "type": "uint256"
        }
      ],
      "name": "addLiquidity",
      "outputs": [],
      "stateMutability": "nonpayable",
      "type": "function"
    },
    {
      "inputs": [],
      "name": "getReserves",
      "outputs": [
        {
          "internalType": "uint256",
          "name": "",
          "type": "uint256"
        },
        {
          "internalType": "uint256",
          "name": "",
          "type": "uint256"
        }
      ],
      "stateMutability": "view",
      "type": "function"
    },
    {
      "inputs": [],
      "name": "owner",
      "outputs": [
        {
          "internalType": "address",
          "name": "",
          "type": "address"
        }
      ],
      "stateMutability": "view",
      "type": "function"
    },
    {
      "inputs": [
        {
          "internalType": "uint256",
          "name": "amountA",
          "type": "uint256"
        },
        {
          "internalType": "uint256",
          "name": "amountB",
          "type": "uint256"
        }
      ],
      "name": "removeLiquidity",
      "outputs": [],
      "stateMutability": "nonpayable",
      "type": "function"
    },
    {
      "inputs": [],
      "name": "reserveA",
      "outputs": [
        {
          "internalType": "uint256",
          "name": "",
          "type": "uint256"
        }
      ],
      "stateMutability": "view",
      "type": "function"
    },
    {
      "inputs": [],
      "name": "reserveB",
      "outputs": [
        {
          "internalType": "uint256",
          "name": "",
          "type": "uint256"
        }
      ],
      "stateMutability": "view",
      "type": "function"
    },
    {
      "inputs": [
        {
          "internalType": "uint256",
          "name": "amountA",
          "type": "uint256"
        }
      ],
      "name": "swapTokenA",
      "outputs": [],
      "stateMutability": "nonpayable",
      "type": "function"
    },
    {
      "inputs": [
        {
          "internalType": "uint256",
          "name": "amountB",
          "type": "uint256"
        }
      ],
      "name": "swapTokenB",
      "outputs": [],
      "stateMutability": "nonpayable",
      "type": "function"
    },
    {
      "inputs": [],
      "name": "tokenA",
      "outputs": [
        {
          "internalType": "contract IERC20",
          "name": "",
          "type": "address"
        }
      ],
      "stateMutability": "view",
      "type": "function"
    },
    {
      "inputs": [],
      "name": "tokenB",
      "outputs": [
        {
          "internalType": "contract IERC20",
          "name": "",
          "type": "address"
        }
      ],
      "stateMutability": "view",
      "type": "function"
    }
  ],
  "transactionHash": "0xfe8a43d9d27c165c4d8235c59d389e000efd682574093b7e2376fc76b98f98fa",
  "args": [
    "0x5FbDB2315678afecb367f032d93F642f64180aa3",
    "0xe7f1725E7734CE288F8367e1Bb143E90bb3F0512"
  ],
  "numDeployments": 1,
  "solcInputHash": "83b7f37191f1e576a7afeffcf72998c6",
  "bytecode": "0x608060405234801561001057600080fd5b506040516116d93803806116d98339818101604052810190610032919061015e565b816000806101000a81548173ffffffffffffffffffffffffffffffffffffffff021916908373ffffffffffffffffffffffffffffffffffffffff16021790555080600160006101000a81548173ffffffffffffffffffffffffffffffffffffffff021916908373ffffffffffffffffffffffffffffffffffffffff16021790555033600460006101000a81548173ffffffffffffffffffffffffffffffffffffffff021916908373ffffffffffffffffffffffffffffffffffffffff160217905550505061019e565b600080fd5b600073ffffffffffffffffffffffffffffffffffffffff82169050919050565b600061012b82610100565b9050919050565b61013b81610120565b811461014657600080fd5b50565b60008151905061015881610132565b92915050565b60008060408385031215610175576101746100fb565b5b600061018385828601610149565b925050602061019485828601610149565b9150509250929050565b61152c806101ad6000396000f3fe608060405234801561001057600080fd5b506004361061009e5760003560e01c80638da5cb5b116100665780638da5cb5b146101385780639cd441da146101565780639d7de6b314610172578063a012b3cf1461018e578063dc5fa6c5146101aa5761009e565b80630902f1ac146100a35780630c5184a1146100c25780630fc63d10146100de57806319e36f3b146100fc5780635f64b55b1461011a575b600080fd5b6100ab6101c8565b6040516100b9929190610dcf565b60405180910390f35b6100dc60048036038101906100d79190610e29565b6101d9565b005b6100e661048c565b6040516100f39190610ed5565b60405180910390f35b6101046104b0565b6040516101119190610ef0565b60405180910390f35b6101226104b6565b60405161012f9190610ed5565b60405180910390f35b6101406104dc565b60405161014d9190610f2c565b60405180910390f35b610170600480360381019061016b9190610f47565b610502565b005b61018c60048036038101906101879190610f47565b6107d8565b005b6101a860048036038101906101a39190610e29565b610afd565b005b6101b2610db0565b6040516101bf9190610ef0565b60405180910390f35b600080600254600354915091509091565b6000816002546101e99190610fb6565b826003546101f79190610fea565b610201919061105b565b9050600354811115610248576040517f08c379a000000000000000000000000000000000000000000000000000000000815260040161023f906110e9565b60405180910390fd5b60008054906101000a900473ffffffffffffffffffffffffffffffffffffffff1673ffffffffffffffffffffffffffffffffffffffff166323b872dd3330856040518463ffffffff1660e01b81526004016102a593929190611109565b6020604051808303816000875af11580156102c4573d6000803e3d6000fd5b505050506040513d601f19601f820116820180604052508101906102e89190611178565b610327576040517f08c379a000000000000000000000000000000000000000000000000000000000815260040161031e906111f1565b60405180910390fd5b600160009054906101000a900473ffffffffffffffffffffffffffffffffffffffff1673ffffffffffffffffffffffffffffffffffffffff1663a9059cbb33836040518363ffffffff1660e01b8152600401610384929190611211565b6020604051808303816000875af11580156103a3573d6000803e3d6000fd5b505050506040513d601f19601f820116820180604052508101906103c79190611178565b610406576040517f08c379a00000000000000000000000000000000000000000000000000000000081526004016103fd90611286565b60405180910390fd5b81600260008282546104189190610fb6565b92505081905550806003600082825461043191906112a6565b925050819055503373ffffffffffffffffffffffffffffffffffffffff167fd5a1cd88ddd329cc1ddf861a21708efa9ef3136b88e1420c21f91ef6f95ad0248383604051610480929190610dcf565b60405180910390a25050565b60008054906101000a900473ffffffffffffffffffffffffffffffffffffffff1681565b60035481565b600160009054906101000a900473ffffffffffffffffffffffffffffffffffffffff1681565b600460009054906101000a900473ffffffffffffffffffffffffffffffffffffffff1681565b600460009054906101000a900473ffffffffffffffffffffffffffffffffffffffff1673ffffffffffffffffffffffffffffffffffffffff163373ffffffffffffffffffffffffffffffffffffffff1614610592576040517f08c379a000000000000000000000000000000000000000000000000000000000815260040161058990611326565b60405180910390fd5b60008054906101000a900473ffffffffffffffffffffffffffffffffffffffff1673ffffffffffffffffffffffffffffffffffffffff166323b872dd3330856040518463ffffffff1660e01b81526004016105ef93929190611109565b6020604051808303816000875af115801561060e573d6000803e3d6000fd5b505050506040513d601f19601f820116820180604052508101906106329190611178565b610671576040517f08c379a000000000000000000000000000000000000000000000000000000000815260040161066890611392565b60405180910390fd5b600160009054906101000a900473ffffffffffffffffffffffffffffffffffffffff1673ffffffffffffffffffffffffffffffffffffffff166323b872dd3330846040518463ffffffff1660e01b81526004016106d093929190611109565b6020604051808303816000875af11580156106ef573d6000803e3d6000fd5b505050506040513d601f19601f820116820180604052508101906107139190611178565b610752576040517f08c379a000000000000000000000000000000000000000000000000000000000815260040161074990611392565b60405180910390fd5b81600260008282546107649190610fb6565b92505081905550806003600082825461077d9190610fb6565b925050819055503373ffffffffffffffffffffffffffffffffffffffff167fac1d76749e5447b7b16f5ab61447e1bd502f3bb4807af3b28e620d1700a6ee4583836040516107cc929190610dcf565b60405180910390a25050565b600460009054906101000a900473ffffffffffffffffffffffffffffffffffffffff1673ffffffffffffffffffffffffffffffffffffffff163373ffffffffffffffffffffffffffffffffffffffff1614610868576040517f08c379a000000000000000000000000000000000000000000000000000000000815260040161085f90611326565b60405180910390fd5b816002541015801561087c57508060035410155b6108bb576040517f08c379a00000000000000000000000000000000000000000000000000000000081526004016108b2906113fe565b60405180910390fd5b60008054906101000a900473ffffffffffffffffffffffffffffffffffffffff1673ffffffffffffffffffffffffffffffffffffffff1663a9059cbb33846040518363ffffffff1660e01b8152600401610916929190611211565b6020604051808303816000875af1158015610935573d6000803e3d6000fd5b505050506040513d601f19601f820116820180604052508101906109599190611178565b610998576040517f08c379a000000000000000000000000000000000000000000000000000000000815260040161098f9061146a565b60405180910390fd5b600160009054906101000a900473ffffffffffffffffffffffffffffffffffffffff1673ffffffffffffffffffffffffffffffffffffffff1663a9059cbb33836040518363ffffffff1660e01b81526004016109f5929190611211565b6020604051808303816000875af1158015610a14573d6000803e3d6000fd5b505050506040513d601f19601f82011682018060405250810190610a389190611178565b610a77576040517f08c379a0000000000000000000000000000000000000000000000000000000008152600401610a6e90611286565b60405180910390fd5b8160026000828254610a8991906112a6565b925050819055508060036000828254610aa291906112a6565b925050819055503373ffffffffffffffffffffffffffffffffffffffff167f96cd817c6329656790ef8fba7675405193677d39619571282f5e21f3a98cd0598383604051610af1929190610dcf565b60405180910390a25050565b600081600354610b0d9190610fb6565b82600254610b1b9190610fea565b610b25919061105b565b9050806002541015610b6c576040517f08c379a0000000000000000000000000000000000000000000000000000000008152600401610b63906114d6565b60405180910390fd5b600160009054906101000a900473ffffffffffffffffffffffffffffffffffffffff1673ffffffffffffffffffffffffffffffffffffffff166323b872dd3330856040518463ffffffff1660e01b8152600401610bcb93929190611109565b6020604051808303816000875af1158015610bea573d6000803e3d6000fd5b505050506040513d601f19601f82011682018060405250810190610c0e9190611178565b610c4d576040517f08c379a0000000000000000000000000000000000000000000000000000000008152600401610c4490611286565b60405180910390fd5b60008054906101000a900473ffffffffffffffffffffffffffffffffffffffff1673ffffffffffffffffffffffffffffffffffffffff1663a9059cbb33836040518363ffffffff1660e01b8152600401610ca8929190611211565b6020604051808303816000875af1158015610cc7573d6000803e3d6000fd5b505050506040513d601f19601f82011682018060405250810190610ceb9190611178565b610d2a576040517f08c379a0000000000000000000000000000000000000000000000000000000008152600401610d219061146a565b60405180910390fd5b8060026000828254610d3c91906112a6565b925050819055508160036000828254610d559190610fb6565b925050819055503373ffffffffffffffffffffffffffffffffffffffff167fd5a1cd88ddd329cc1ddf861a21708efa9ef3136b88e1420c21f91ef6f95ad0248383604051610da4929190610dcf565b60405180910390a25050565b60025481565b6000819050919050565b610dc981610db6565b82525050565b6000604082019050610de46000830185610dc0565b610df16020830184610dc0565b9392505050565b600080fd5b610e0681610db6565b8114610e1157600080fd5b50565b600081359050610e2381610dfd565b92915050565b600060208284031215610e3f57610e3e610df8565b5b6000610e4d84828501610e14565b91505092915050565b600073ffffffffffffffffffffffffffffffffffffffff82169050919050565b6000819050919050565b6000610e9b610e96610e9184610e56565b610e76565b610e56565b9050919050565b6000610ead82610e80565b9050919050565b6000610ebf82610ea2565b9050919050565b610ecf81610eb4565b82525050565b6000602082019050610eea6000830184610ec6565b92915050565b6000602082019050610f056000830184610dc0565b92915050565b6000610f1682610e56565b9050919050565b610f2681610f0b565b82525050565b6000602082019050610f416000830184610f1d565b92915050565b60008060408385031215610f5e57610f5d610df8565b5b6000610f6c85828601610e14565b9250506020610f7d85828601610e14565b9150509250929050565b7f4e487b7100000000000000000000000000000000000000000000000000000000600052601160045260246000fd5b6000610fc182610db6565b9150610fcc83610db6565b9250828201905080821115610fe457610fe3610f87565b5b92915050565b6000610ff582610db6565b915061100083610db6565b925082820261100e81610db6565b9150828204841483151761102557611024610f87565b5b5092915050565b7f4e487b7100000000000000000000000000000000000000000000000000000000600052601260045260246000fd5b600061106682610db6565b915061107183610db6565b9250826110815761108061102c565b5b828204905092915050565b600082825260208201905092915050565b7f6e6f7420656e6f75676820546f6b656e42000000000000000000000000000000600082015250565b60006110d360118361108c565b91506110de8261109d565b602082019050919050565b60006020820190508181036000830152611102816110c6565b9050919050565b600060608201905061111e6000830186610f1d565b61112b6020830185610f1d565b6111386040830184610dc0565b949350505050565b60008115159050919050565b61115581611140565b811461116057600080fd5b50565b6000815190506111728161114c565b92915050565b60006020828403121561118e5761118d610df8565b5b600061119c84828501611163565b91505092915050565b7f746f6b656e207472616e73666572206661696c65640000000000000000000000600082015250565b60006111db60158361108c565b91506111e6826111a5565b602082019050919050565b6000602082019050818103600083015261120a816111ce565b9050919050565b60006040820190506112266000830185610f1d565b6112336020830184610dc0565b9392505050565b7f546f6b656e42207472616e73666572206661696c656400000000000000000000600082015250565b600061127060168361108c565b915061127b8261123a565b602082019050919050565b6000602082019050818103600083015261129f81611263565b9050919050565b60006112b182610db6565b91506112bc83610db6565b92508282039050818111156112d4576112d3610f87565b5b92915050565b7f4f4e4c59204f574e45522043414e20414444204c495155494449545920000000600082015250565b6000611310601d8361108c565b915061131b826112da565b602082019050919050565b6000602082019050818103600083015261133f81611303565b9050919050565b7f7472616e73666572206661696c65640000000000000000000000000000000000600082015250565b600061137c600f8361108c565b915061138782611346565b602082019050919050565b600060208201905081810360008301526113ab8161136f565b9050919050565b7f496e73756666696369656e742072657365727665730000000000000000000000600082015250565b60006113e860158361108c565b91506113f3826113b2565b602082019050919050565b60006020820190508181036000830152611417816113db565b9050919050565b7f546f6b656e41207472616e73666572206661696c656400000000000000000000600082015250565b600061145460168361108c565b915061145f8261141e565b602082019050919050565b6000602082019050818103600083015261148381611447565b9050919050565b7f496e73756666696369656e7420746f6b656e4120696e20706f6f6c0000000000600082015250565b60006114c0601b8361108c565b91506114cb8261148a565b602082019050919050565b600060208201905081810360008301526114ef816114b3565b905091905056fea2646970667358221220f2e8c1666df72b1df95fab06a5a7815aa22c7375b23dc9af73a285bc2d40fc0f64736f6c634300081c0033",
  "devdoc": {
    "kind": "dev",
    "methods": {},
    "version": 1
  },
  "userdoc": {
    "kind": "user",
    "methods": {},
    "version": 1
  },
  "storageLayout": {
    "storage": [
      {
        "astId": 792,
        "contract": "contracts/main.sol:LiquidityPool",
        "label": "tokenA",
        "offset": 0,
        "slot": "0",
        "type": "t_contract(IERC20)729"
      },
      {
        "astId": 795,
        "contract": "contracts/main.sol:LiquidityPool",
        "label": "tokenB",
        "offset": 0,
        "slot": "1",
        "type": "t_contract(IERC20)729"
      },
      {
        "astId": 797,
        "contract": "contracts/main.sol:LiquidityPool",
        "label": "reserveA",
        "offset": 0,
        "slot": "2",
        "type": "t_uint256"
      },
      {
        "astId": 799,
        "contract": "contracts/main.sol:LiquidityPool",
        "label": "reserveB",
        "offset": 0,
        "slot": "3",
        "type": "t_uint256"
      },
      {
        "astId": 801,
        "contract": "contracts/main.sol:LiquidityPool",
        "label": "owner",
        "offset": 0,
        "slot": "4",
        "type": "t_address"
      }
    ],
    "types": {
      "t_address": {
        "encoding": "inplace",
        "label": "address",
        "numberOfBytes": "20"
      },
      "t_contract(IERC20)729": {
        "encoding": "inplace",
        "label": "contract IERC20",
        "numberOfBytes": "20"
      },
      "t_uint256": {
        "encoding": "inplace",
        "label": "uint256",
        "numberOfBytes": "32"
      }
    }
  }
}